{
  "contractName": "ConsumerRole",
  "abi": [
    {
      "inputs": [],
      "payable": false,
      "stateMutability": "nonpayable",
      "type": "constructor"
    },
    {
      "anonymous": false,
      "inputs": [
        {
          "indexed": true,
          "name": "account",
          "type": "address"
        }
      ],
      "name": "ConsumerAdded",
      "type": "event"
    },
    {
      "anonymous": false,
      "inputs": [
        {
          "indexed": true,
          "name": "account",
          "type": "address"
        }
      ],
      "name": "ConsumerRemoved",
      "type": "event"
    },
    {
      "constant": true,
      "inputs": [
        {
          "name": "account",
          "type": "address"
        }
      ],
      "name": "isConsumer",
      "outputs": [
        {
          "name": "",
          "type": "bool"
        }
      ],
      "payable": false,
      "stateMutability": "view",
      "type": "function"
    },
    {
      "constant": false,
      "inputs": [
        {
          "name": "account",
          "type": "address"
        }
      ],
      "name": "addConsumer",
      "outputs": [],
      "payable": false,
      "stateMutability": "nonpayable",
      "type": "function"
    },
    {
      "constant": false,
      "inputs": [],
      "name": "renounceConsumer",
      "outputs": [],
      "payable": false,
      "stateMutability": "nonpayable",
      "type": "function"
    }
  ],
  "bytecode": "0x608060405234801561001057600080fd5b506100293361002e640100000000026401000000009004565b6101e8565b61004f81600061009564010000000002610330179091906401000000009004565b8073ffffffffffffffffffffffffffffffffffffffff167f28b26e7a3d20aedbc5f8f2ebf7da671c0491723a2b78f47a097b0e46dee0714260405160405180910390a250565b600073ffffffffffffffffffffffffffffffffffffffff168173ffffffffffffffffffffffffffffffffffffffff16141515156100d157600080fd5b6100ea8282610154640100000000026401000000009004565b1515156100f657600080fd5b60018260000160008373ffffffffffffffffffffffffffffffffffffffff1673ffffffffffffffffffffffffffffffffffffffff16815260200190815260200160002060006101000a81548160ff0219169083151502179055505050565b60008073ffffffffffffffffffffffffffffffffffffffff168273ffffffffffffffffffffffffffffffffffffffff161415151561019157600080fd5b8260000160008373ffffffffffffffffffffffffffffffffffffffff1673ffffffffffffffffffffffffffffffffffffffff16815260200190815260200160002060009054906101000a900460ff16905092915050565b6104bb806101f76000396000f300608060405260043610610057576000357c0100000000000000000000000000000000000000000000000000000000900463ffffffff168063112940f91461005c57806361e6982d1461009f578063834ff739146100b6575b600080fd5b34801561006857600080fd5b5061009d600480360381019080803573ffffffffffffffffffffffffffffffffffffffff169060200190929190505050610111565b005b3480156100ab57600080fd5b506100b46101c0565b005b3480156100c257600080fd5b506100f7600480360381019080803573ffffffffffffffffffffffffffffffffffffffff1690602001909291905050506101cb565b604051808215151515815260200191505060405180910390f35b61011a336101cb565b15156101b4576040517f08c379a00000000000000000000000000000000000000000000000000000000081526004018080602001828103825260248152602001807f4f6e6c7920636f6e73756d65722063616e2063616c6c20746869732066756e6381526020017f74696f6e0000000000000000000000000000000000000000000000000000000081525060400191505060405180910390fd5b6101bd816101e8565b50565b6101c933610242565b565b60006101e182600061029c90919063ffffffff16565b9050919050565b6101fc81600061033090919063ffffffff16565b8073ffffffffffffffffffffffffffffffffffffffff167f28b26e7a3d20aedbc5f8f2ebf7da671c0491723a2b78f47a097b0e46dee0714260405160405180910390a250565b6102568160006103e090919063ffffffff16565b8073ffffffffffffffffffffffffffffffffffffffff167fe3f5ed5f263f1f01764a96edfc7d025f511ec5f7d180e8816908b78bcf74f09860405160405180910390a250565b60008073ffffffffffffffffffffffffffffffffffffffff168273ffffffffffffffffffffffffffffffffffffffff16141515156102d957600080fd5b8260000160008373ffffffffffffffffffffffffffffffffffffffff1673ffffffffffffffffffffffffffffffffffffffff16815260200190815260200160002060009054906101000a900460ff16905092915050565b600073ffffffffffffffffffffffffffffffffffffffff168173ffffffffffffffffffffffffffffffffffffffff161415151561036c57600080fd5b610376828261029c565b15151561038257600080fd5b60018260000160008373ffffffffffffffffffffffffffffffffffffffff1673ffffffffffffffffffffffffffffffffffffffff16815260200190815260200160002060006101000a81548160ff0219169083151502179055505050565b600073ffffffffffffffffffffffffffffffffffffffff168173ffffffffffffffffffffffffffffffffffffffff161415151561041c57600080fd5b610426828261029c565b151561043157600080fd5b60008260000160008373ffffffffffffffffffffffffffffffffffffffff1673ffffffffffffffffffffffffffffffffffffffff16815260200190815260200160002060006101000a81548160ff02191690831515021790555050505600a165627a7a7230582044775a4d05525ba5ffb1f38d08e820dd60f577d974a2ed5e85ee2c8dfbf920cc0029",
  "source": "pragma solidity ^0.4.24;\n\n// Import the library 'Roles'\nimport \"./Roles.sol\";\n\n// Define a contract 'ConsumerRole' to manage this role - add, remove, check\ncontract ConsumerRole {\n    // Define 2 events, one for Adding, and other for Removing\n    event ConsumerAdded(address indexed account);\n    event ConsumerRemoved(address indexed account);\n\n    // Define a struct 'consumers' by inheriting from 'Roles' library, struct Role\n    using Roles for Roles.Role;\n    Roles.Role private consumers;\n\n    // In the constructor make the address that deploys this contract the 1st consumer\n    constructor() public {\n        _addConsumer(msg.sender);\n    }\n\n    // Define a modifier that checks to see if msg.sender has the appropriate role\n    modifier onlyConsumer() {\n        require(isConsumer(msg.sender), \"Only consumer can call this function\");\n        _;\n    }\n\n    // Define a function 'isConsumer' to check this role\n    function isConsumer(address account) public view returns (bool) {\n        return consumers.has(account);\n    }\n\n    // Define a function 'addConsumer' that adds this role\n    function addConsumer(address account) public onlyConsumer {\n        _addConsumer(account);\n    }\n\n    // Define a function 'renounceConsumer' to renounce this role\n    function renounceConsumer() public {\n        _removeConsumer(msg.sender);\n    }\n\n    // Define an internal function '_addConsumer' to add this role, called by 'addConsumer'\n    function _addConsumer(address account) internal {\n        consumers.add(account);\n        emit ConsumerAdded(account);\n    }\n\n    // Define an internal function '_removeConsumer' to remove this role, called by 'removeConsumer'\n    function _removeConsumer(address account) internal {\n        consumers.remove(account);\n        emit ConsumerRemoved(account);\n    }\n}\n",
  "sourcePath": "/Users/manuel/git/supplychain/eth-dapp-supplychain/contracts/coffeeaccesscontrol/ConsumerRole.sol",
  "compiler": {
    "name": "solc",
    "version": "0.4.24+commit.e67f0147.Emscripten.clang"
  },
  "schemaVersion": "2.0.1",
  "updatedAt": "2023-09-08T05:32:13.503Z"
}